{
  "_format": "hh-sol-artifact-1",
  "contractName": "Transactions",
  "sourceName": "contracts/Transactions.sol",
  "abi": [
    {
      "anonymous": false,
      "inputs": [
        {
          "indexed": true,
          "internalType": "uint256",
          "name": "id",
          "type": "uint256"
        },
        {
          "indexed": false,
          "internalType": "address",
          "name": "from",
          "type": "address"
        },
        {
          "indexed": false,
          "internalType": "address",
          "name": "to",
          "type": "address"
        },
        {
          "indexed": false,
          "internalType": "uint256",
          "name": "amount",
          "type": "uint256"
        },
        {
          "indexed": false,
          "internalType": "string",
          "name": "message",
          "type": "string"
        },
        {
          "indexed": false,
          "internalType": "uint256",
          "name": "timestamp",
          "type": "uint256"
        }
      ],
      "name": "Transfered",
      "type": "event"
    },
    {
      "inputs": [],
      "name": "getAllTransactions",
      "outputs": [
        {
          "components": [
            {
              "internalType": "address",
              "name": "sender",
              "type": "address"
            },
            {
              "internalType": "address",
              "name": "receiver",
              "type": "address"
            },
            {
              "internalType": "uint256",
              "name": "amount",
              "type": "uint256"
            },
            {
              "internalType": "string",
              "name": "message",
              "type": "string"
            },
            {
              "internalType": "uint256",
              "name": "timestamp",
              "type": "uint256"
            }
          ],
          "internalType": "struct Transactions.Transfer[]",
          "name": "",
          "type": "tuple[]"
        }
      ],
      "stateMutability": "view",
      "type": "function"
    },
    {
      "inputs": [],
      "name": "getTransactionCount",
      "outputs": [
        {
          "internalType": "uint256",
          "name": "",
          "type": "uint256"
        }
      ],
      "stateMutability": "view",
      "type": "function"
    },
    {
      "inputs": [
        {
          "internalType": "address",
          "name": "receiver",
          "type": "address"
        },
        {
          "internalType": "uint256",
          "name": "amount",
          "type": "uint256"
        },
        {
          "internalType": "string",
          "name": "message",
          "type": "string"
        }
      ],
      "name": "transfer",
      "outputs": [],
      "stateMutability": "nonpayable",
      "type": "function"
    }
  ],
  "bytecode": "0x608060405234801561001057600080fd5b50610af0806100206000396000f3fe608060405234801561001057600080fd5b50600436106100415760003560e01c806327506f53146100465780632e7700f01461006457806356b8c72414610082575b600080fd5b61004e61009e565b60405161005b91906107aa565b60405180910390f35b61006c61024f565b60405161007991906107cc565b60405180910390f35b61009c60048036038101906100979190610534565b610258565b005b60606001805480602002602001604051908101604052809291908181526020016000905b8282101561024657838290600052602060002090600502016040518060a00160405290816000820160009054906101000a900473ffffffffffffffffffffffffffffffffffffffff1673ffffffffffffffffffffffffffffffffffffffff1673ffffffffffffffffffffffffffffffffffffffff1681526020016001820160009054906101000a900473ffffffffffffffffffffffffffffffffffffffff1673ffffffffffffffffffffffffffffffffffffffff1673ffffffffffffffffffffffffffffffffffffffff168152602001600282015481526020016003820180546101ab90610977565b80601f01602080910402602001604051908101604052809291908181526020018280546101d790610977565b80156102245780601f106101f957610100808354040283529160200191610224565b820191906000526020600020905b81548152906001019060200180831161020757829003601f168201915b50505050508152602001600482015481525050815260200190600101906100c2565b50505050905090565b60008054905090565b600160008082825461026a91906108a3565b9250508190555060016040518060a001604052803373ffffffffffffffffffffffffffffffffffffffff1681526020018573ffffffffffffffffffffffffffffffffffffffff16815260200184815260200183815260200142815250908060018154018082558091505060019003906000526020600020906005020160009091909190915060008201518160000160006101000a81548173ffffffffffffffffffffffffffffffffffffffff021916908373ffffffffffffffffffffffffffffffffffffffff16021790555060208201518160010160006101000a81548173ffffffffffffffffffffffffffffffffffffffff021916908373ffffffffffffffffffffffffffffffffffffffff1602179055506040820151816002015560608201518160030190805190602001906103a39291906103f7565b506080820151816004015550506000547f1d3cb5ba7f176cf9be5a411579c65470d5c30cfdc50873873e9ceb21e1a246d433858585426040516103ea959493929190610750565b60405180910390a2505050565b82805461040390610977565b90600052602060002090601f016020900481019282610425576000855561046c565b82601f1061043e57805160ff191683800117855561046c565b8280016001018555821561046c579182015b8281111561046b578251825591602001919060010190610450565b5b509050610479919061047d565b5090565b5b8082111561049657600081600090555060010161047e565b5090565b60006104ad6104a88461080c565b6107e7565b9050828152602081018484840111156104c9576104c8610a6c565b5b6104d4848285610935565b509392505050565b6000813590506104eb81610a8c565b92915050565b600082601f83011261050657610505610a67565b5b813561051684826020860161049a565b91505092915050565b60008135905061052e81610aa3565b92915050565b60008060006060848603121561054d5761054c610a76565b5b600061055b868287016104dc565b935050602061056c8682870161051f565b925050604084013567ffffffffffffffff81111561058d5761058c610a71565b5b610599868287016104f1565b9150509250925092565b60006105af83836106bc565b905092915050565b6105c0816108f9565b82525050565b6105cf816108f9565b82525050565b60006105e08261084d565b6105ea8185610870565b9350836020820285016105fc8561083d565b8060005b85811015610638578484038952815161061985826105a3565b945061062483610863565b925060208a01995050600181019050610600565b50829750879550505050505092915050565b600061065582610858565b61065f8185610881565b935061066f818560208601610944565b61067881610a7b565b840191505092915050565b600061068e82610858565b6106988185610892565b93506106a8818560208601610944565b6106b181610a7b565b840191505092915050565b600060a0830160008301516106d460008601826105b7565b5060208301516106e760208601826105b7565b5060408301516106fa6040860182610732565b5060608301518482036060860152610712828261064a565b91505060808301516107276080860182610732565b508091505092915050565b61073b8161092b565b82525050565b61074a8161092b565b82525050565b600060a08201905061076560008301886105c6565b61077260208301876105c6565b61077f6040830186610741565b81810360608301526107918185610683565b90506107a06080830184610741565b9695505050505050565b600060208201905081810360008301526107c481846105d5565b905092915050565b60006020820190506107e16000830184610741565b92915050565b60006107f1610802565b90506107fd82826109a9565b919050565b6000604051905090565b600067ffffffffffffffff82111561082757610826610a38565b5b61083082610a7b565b9050602081019050919050565b6000819050602082019050919050565b600081519050919050565b600081519050919050565b6000602082019050919050565b600082825260208201905092915050565b600082825260208201905092915050565b600082825260208201905092915050565b60006108ae8261092b565b91506108b98361092b565b9250827fffffffffffffffffffffffffffffffffffffffffffffffffffffffffffffffff038211156108ee576108ed6109da565b5b828201905092915050565b60006109048261090b565b9050919050565b600073ffffffffffffffffffffffffffffffffffffffff82169050919050565b6000819050919050565b82818337600083830152505050565b60005b83811015610962578082015181840152602081019050610947565b83811115610971576000848401525b50505050565b6000600282049050600182168061098f57607f821691505b602082108114156109a3576109a2610a09565b5b50919050565b6109b282610a7b565b810181811067ffffffffffffffff821117156109d1576109d0610a38565b5b80604052505050565b7f4e487b7100000000000000000000000000000000000000000000000000000000600052601160045260246000fd5b7f4e487b7100000000000000000000000000000000000000000000000000000000600052602260045260246000fd5b7f4e487b7100000000000000000000000000000000000000000000000000000000600052604160045260246000fd5b600080fd5b600080fd5b600080fd5b600080fd5b6000601f19601f8301169050919050565b610a95816108f9565b8114610aa057600080fd5b50565b610aac8161092b565b8114610ab757600080fd5b5056fea264697066735822122031c51407c2f3b4e411295dfed15a4fc91f84077f6ba525ddd1729766c6eb612964736f6c63430008070033",
  "linkReferences": {},
  "deployedLinkReferences": {}
}